{
  "contractName": "SaleFactory",
  "abi": [
    {
      "inputs": [],
      "stateMutability": "nonpayable",
      "type": "constructor"
    },
    {
      "anonymous": false,
      "inputs": [
        {
          "indexed": true,
          "internalType": "address",
          "name": "_saleContract",
          "type": "address"
        },
        {
          "indexed": true,
          "internalType": "address",
          "name": "_owner",
          "type": "address"
        },
        {
          "indexed": false,
          "internalType": "uint256",
          "name": "_workId",
          "type": "uint256"
        }
      ],
      "name": "NewSale",
      "type": "event"
    },
    {
      "anonymous": false,
      "inputs": [
        {
          "indexed": true,
          "internalType": "address",
          "name": "previousOwner",
          "type": "address"
        },
        {
          "indexed": true,
          "internalType": "address",
          "name": "newOwner",
          "type": "address"
        }
      ],
      "name": "OwnershipTransferred",
      "type": "event"
    },
    {
      "inputs": [],
      "name": "admin",
      "outputs": [
        {
          "internalType": "address",
          "name": "",
          "type": "address"
        }
      ],
      "stateMutability": "view",
      "type": "function",
      "constant": true
    },
    {
      "inputs": [],
      "name": "owner",
      "outputs": [
        {
          "internalType": "address",
          "name": "",
          "type": "address"
        }
      ],
      "stateMutability": "view",
      "type": "function",
      "constant": true
    },
    {
      "inputs": [],
      "name": "renounceOwnership",
      "outputs": [],
      "stateMutability": "nonpayable",
      "type": "function"
    },
    {
      "inputs": [
        {
          "internalType": "uint256",
          "name": "",
          "type": "uint256"
        }
      ],
      "name": "sales",
      "outputs": [
        {
          "internalType": "address",
          "name": "",
          "type": "address"
        }
      ],
      "stateMutability": "view",
      "type": "function",
      "constant": true
    },
    {
      "inputs": [
        {
          "internalType": "address",
          "name": "newOwner",
          "type": "address"
        }
      ],
      "name": "transferOwnership",
      "outputs": [],
      "stateMutability": "nonpayable",
      "type": "function"
    },
    {
      "inputs": [
        {
          "internalType": "uint256",
          "name": "itemId",
          "type": "uint256"
        },
        {
          "internalType": "uint256",
          "name": "purchasePrice",
          "type": "uint256"
        },
        {
          "internalType": "address",
          "name": "currencyAddress",
          "type": "address"
        },
        {
          "internalType": "address",
          "name": "nftAddress",
          "type": "address"
        }
      ],
      "name": "createSale",
      "outputs": [
        {
          "internalType": "address",
          "name": "",
          "type": "address"
        }
      ],
      "stateMutability": "nonpayable",
      "type": "function"
    },
    {
      "inputs": [],
      "name": "allSales",
      "outputs": [
        {
          "internalType": "address[]",
          "name": "",
          "type": "address[]"
        }
      ],
      "stateMutability": "view",
      "type": "function",
      "constant": true
    },
    {
      "inputs": [
        {
          "internalType": "uint256",
          "name": "tokenId",
          "type": "uint256"
        }
      ],
      "name": "getSaleContractAddress",
      "outputs": [
        {
          "internalType": "address",
          "name": "",
          "type": "address"
        }
      ],
      "stateMutability": "view",
      "type": "function",
      "constant": true
    }
  ],
  "bytecode": "0x608060405234801561001057600080fd5b5061002d61002261007360201b60201c565b61007b60201b60201c565b33600160006101000a81548173ffffffffffffffffffffffffffffffffffffffff021916908373ffffffffffffffffffffffffffffffffffffffff16021790555061013f565b600033905090565b60008060009054906101000a900473ffffffffffffffffffffffffffffffffffffffff169050816000806101000a81548173ffffffffffffffffffffffffffffffffffffffff021916908373ffffffffffffffffffffffffffffffffffffffff1602179055508173ffffffffffffffffffffffffffffffffffffffff168173ffffffffffffffffffffffffffffffffffffffff167f8be0079c531659141344cd1fd0a4f28419497f9722a3daafe3b4186f6b6457e060405160405180910390a35050565b6123338061014e6000396000f3fe60806040523480156200001157600080fd5b5060043610620000945760003560e01c8063908c18071162000063578063908c1807146200011f578063b5f522f71462000155578063f2fde38b146200018b578063f851a44014620001ab5762000094565b80631df3574f14620000995780636eafecba14620000cf578063715018a614620000f15780638da5cb5b14620000fd575b600080fd5b620000b76004803603810190620000b191906200087a565b620001cd565b604051620000c69190620008fd565b60405180910390f35b620000d962000365565b604051620000e89190620009e8565b60405180910390f35b620000fb620003f5565b005b6200010762000486565b604051620001169190620008fd565b60405180910390f35b6200013d600480360381019062000137919062000a0c565b620004af565b6040516200014c9190620008fd565b60405180910390f35b6200017360048036038101906200016d919062000a0c565b62000591565b604051620001829190620008fd565b60405180910390f35b620001a96004803603810190620001a3919062000a3e565b620005d1565b005b620001b5620006d5565b604051620001c49190620008fd565b60405180910390f35b6000803390506000600160009054906101000a900473ffffffffffffffffffffffffffffffffffffffff1682888888886040516200020b90620007c7565b6200021c9695949392919062000a81565b604051809103906000f08015801562000239573d6000803e3d6000fd5b5090506002819080600181540180825580915050600190039060005260206000200160009091909190916101000a81548173ffffffffffffffffffffffffffffffffffffffff021916908373ffffffffffffffffffffffffffffffffffffffff160217905550806003600089815260200190815260200160002060006101000a81548173ffffffffffffffffffffffffffffffffffffffff021916908373ffffffffffffffffffffffffffffffffffffffff1602179055503373ffffffffffffffffffffffffffffffffffffffff168173ffffffffffffffffffffffffffffffffffffffff167f874bdb649427dfeceaa7f10beee59a823d3e45a6814f50bc18ba2adefd058e488960405162000350919062000aee565b60405180910390a38092505050949350505050565b60606002805480602002602001604051908101604052809291908181526020018280548015620003eb57602002820191906000526020600020905b8160009054906101000a900473ffffffffffffffffffffffffffffffffffffffff1673ffffffffffffffffffffffffffffffffffffffff1681526020019060010190808311620003a0575b5050505050905090565b620003ff620006fb565b73ffffffffffffffffffffffffffffffffffffffff166200041f62000486565b73ffffffffffffffffffffffffffffffffffffffff161462000478576040517f08c379a00000000000000000000000000000000000000000000000000000000081526004016200046f9062000b6c565b60405180910390fd5b62000484600062000703565b565b60008060009054906101000a900473ffffffffffffffffffffffffffffffffffffffff16905090565b60008073ffffffffffffffffffffffffffffffffffffffff166003600084815260200190815260200160002060009054906101000a900473ffffffffffffffffffffffffffffffffffffffff1673ffffffffffffffffffffffffffffffffffffffff16141562000556576040517f08c379a00000000000000000000000000000000000000000000000000000000081526004016200054d9062000bde565b60405180910390fd5b6003600083815260200190815260200160002060009054906101000a900473ffffffffffffffffffffffffffffffffffffffff169050919050565b60028181548110620005a257600080fd5b906000526020600020016000915054906101000a900473ffffffffffffffffffffffffffffffffffffffff1681565b620005db620006fb565b73ffffffffffffffffffffffffffffffffffffffff16620005fb62000486565b73ffffffffffffffffffffffffffffffffffffffff161462000654576040517f08c379a00000000000000000000000000000000000000000000000000000000081526004016200064b9062000b6c565b60405180910390fd5b600073ffffffffffffffffffffffffffffffffffffffff168173ffffffffffffffffffffffffffffffffffffffff161415620006c7576040517f08c379a0000000000000000000000000000000000000000000000000000000008152600401620006be9062000c76565b60405180910390fd5b620006d28162000703565b50565b600160009054906101000a900473ffffffffffffffffffffffffffffffffffffffff1681565b600033905090565b60008060009054906101000a900473ffffffffffffffffffffffffffffffffffffffff169050816000806101000a81548173ffffffffffffffffffffffffffffffffffffffff021916908373ffffffffffffffffffffffffffffffffffffffff1602179055508173ffffffffffffffffffffffffffffffffffffffff168173ffffffffffffffffffffffffffffffffffffffff167f8be0079c531659141344cd1fd0a4f28419497f9722a3daafe3b4186f6b6457e060405160405180910390a35050565b6116658062000c9983390190565b600080fd5b6000819050919050565b620007ef81620007da565b8114620007fb57600080fd5b50565b6000813590506200080f81620007e4565b92915050565b600073ffffffffffffffffffffffffffffffffffffffff82169050919050565b6000620008428262000815565b9050919050565b620008548162000835565b81146200086057600080fd5b50565b600081359050620008748162000849565b92915050565b60008060008060808587031215620008975762000896620007d5565b5b6000620008a787828801620007fe565b9450506020620008ba87828801620007fe565b9350506040620008cd8782880162000863565b9250506060620008e08782880162000863565b91505092959194509250565b620008f78162000835565b82525050565b6000602082019050620009146000830184620008ec565b92915050565b600081519050919050565b600082825260208201905092915050565b6000819050602082019050919050565b620009518162000835565b82525050565b600062000965838362000946565b60208301905092915050565b6000602082019050919050565b60006200098b826200091a565b62000997818562000925565b9350620009a48362000936565b8060005b83811015620009db578151620009bf888262000957565b9750620009cc8362000971565b925050600181019050620009a8565b5085935050505092915050565b6000602082019050818103600083015262000a0481846200097e565b905092915050565b60006020828403121562000a255762000a24620007d5565b5b600062000a3584828501620007fe565b91505092915050565b60006020828403121562000a575762000a56620007d5565b5b600062000a678482850162000863565b91505092915050565b62000a7b81620007da565b82525050565b600060c08201905062000a986000830189620008ec565b62000aa76020830188620008ec565b62000ab6604083018762000a70565b62000ac5606083018662000a70565b62000ad46080830185620008ec565b62000ae360a0830184620008ec565b979650505050505050565b600060208201905062000b05600083018462000a70565b92915050565b600082825260208201905092915050565b7f4f776e61626c653a2063616c6c6572206973206e6f7420746865206f776e6572600082015250565b600062000b5460208362000b0b565b915062000b618262000b1c565b602082019050919050565b6000602082019050818103600083015262000b878162000b45565b9050919050565b7f7468697320746f6b656e206973206e6f74206f6e2073616c6500000000000000600082015250565b600062000bc660198362000b0b565b915062000bd38262000b8e565b602082019050919050565b6000602082019050818103600083015262000bf98162000bb7565b9050919050565b7f4f776e61626c653a206e6577206f776e657220697320746865207a65726f206160008201527f6464726573730000000000000000000000000000000000000000000000000000602082015250565b600062000c5e60268362000b0b565b915062000c6b8262000c00565b604082019050919050565b6000602082019050818103600083015262000c918162000c4f565b905091905056fe60806040523480156200001157600080fd5b506040516200166538038062001665833981810160405281019062000037919062000296565b8360048190555082600381905550846000806101000a81548173ffffffffffffffffffffffffffffffffffffffff021916908373ffffffffffffffffffffffffffffffffffffffff16021790555085600260006101000a81548173ffffffffffffffffffffffffffffffffffffffff021916908373ffffffffffffffffffffffffffffffffffffffff16021790555081600560006101000a81548173ffffffffffffffffffffffffffffffffffffffff021916908373ffffffffffffffffffffffffffffffffffffffff16021790555080600660006101000a81548173ffffffffffffffffffffffffffffffffffffffff021916908373ffffffffffffffffffffffffffffffffffffffff1602179055506000600660146101000a81548160ff02191690831515021790555081600960006101000a81548173ffffffffffffffffffffffffffffffffffffffff021916908373ffffffffffffffffffffffffffffffffffffffff16021790555080600a60006101000a81548173ffffffffffffffffffffffffffffffffffffffff021916908373ffffffffffffffffffffffffffffffffffffffff16021790555050505050505062000332565b600080fd5b600073ffffffffffffffffffffffffffffffffffffffff82169050919050565b60006200022382620001f6565b9050919050565b620002358162000216565b81146200024157600080fd5b50565b60008151905062000255816200022a565b92915050565b6000819050919050565b62000270816200025b565b81146200027c57600080fd5b50565b600081519050620002908162000265565b92915050565b60008060008060008060c08789031215620002b657620002b5620001f1565b5b6000620002c689828a0162000244565b9650506020620002d989828a0162000244565b9550506040620002ec89828a016200027f565b9450506060620002ff89828a016200027f565b93505060806200031289828a0162000244565b92505060a06200032589828a0162000244565b9150509295509295509295565b61132380620003426000396000f3fe608060405234801561001057600080fd5b506004361061010b5760003560e01c80637150d8ae116100a2578063d57bde7911610071578063d57bde791461024e578063db83694c1461026c578063defd6c5f1461028d578063ec2bbbdb146102ab578063efef39a1146102c95761010b565b80637150d8ae146101ea5780638b78a49f14610208578063903e329c1461022657806391f90157146102305761010b565b80631c1cb323116100de5780631c1cb32314610174578063454a2ab3146101925780634979440a146101ae5780635bf8633a146101cc5761010b565b806308551a53146101105780630a7f463f1461012e57806312fa6feb1461013857806317d70f7c14610156575b600080fd5b6101186102e5565b6040516101259190610c9a565b60405180910390f35b610136610309565b005b61014061030b565b60405161014d9190610cd0565b60405180910390f35b61015e61031e565b60405161016b9190610d04565b60405180910390f35b61017c610324565b6040516101899190610c9a565b60405180910390f35b6101ac60048036038101906101a79190610d50565b61034a565b005b6101b661034d565b6040516101c39190610d04565b60405180910390f35b6101d4610357565b6040516101e19190610c9a565b60405180910390f35b6101f261037d565b6040516101ff9190610c9a565b60405180910390f35b6102106103a3565b60405161021d9190610ddc565b60405180910390f35b61022e6103c9565b005b61023861059f565b6040516102459190610c9a565b60405180910390f35b6102566105c5565b6040516102639190610d04565b60405180910390f35b6102746105cb565b6040516102849493929190610df7565b60405180910390f35b61029561062b565b6040516102a29190610d04565b60405180910390f35b6102b3610631565b6040516102c09190610e5d565b60405180910390f35b6102e360048036038101906102de9190610d50565b610657565b005b60008054906101000a900473ffffffffffffffffffffffffffffffffffffffff1681565b565b600660149054906101000a900460ff1681565b60045481565b600560009054906101000a900473ffffffffffffffffffffffffffffffffffffffff1681565b50565b6000600854905090565b600660009054906101000a900473ffffffffffffffffffffffffffffffffffffffff1681565b600160009054906101000a900473ffffffffffffffffffffffffffffffffffffffff1681565b600a60009054906101000a900473ffffffffffffffffffffffffffffffffffffffff1681565b60008054906101000a900473ffffffffffffffffffffffffffffffffffffffff1673ffffffffffffffffffffffffffffffffffffffff163373ffffffffffffffffffffffffffffffffffffffff1614806104705750600260009054906101000a900473ffffffffffffffffffffffffffffffffffffffff1673ffffffffffffffffffffffffffffffffffffffff163373ffffffffffffffffffffffffffffffffffffffff16145b6104af576040517f08c379a00000000000000000000000000000000000000000000000000000000081526004016104a690610ed5565b60405180910390fd5b60008054906101000a900473ffffffffffffffffffffffffffffffffffffffff1673ffffffffffffffffffffffffffffffffffffffff163373ffffffffffffffffffffffffffffffffffffffff1614806105565750600260009054906101000a900473ffffffffffffffffffffffffffffffffffffffff1673ffffffffffffffffffffffffffffffffffffffff163373ffffffffffffffffffffffffffffffffffffffff16145b610595576040517f08c379a000000000000000000000000000000000000000000000000000000000815260040161058c90610f41565b60405180910390fd5b61059d610c3c565b565b600760009054906101000a900473ffffffffffffffffffffffffffffffffffffffff1681565b60085481565b600080600080600354600454600560009054906101000a900473ffffffffffffffffffffffffffffffffffffffff16600660009054906101000a900473ffffffffffffffffffffffffffffffffffffffff16935093509350935090919293565b60035481565b600960009054906101000a900473ffffffffffffffffffffffffffffffffffffffff1681565b60008054906101000a900473ffffffffffffffffffffffffffffffffffffffff1673ffffffffffffffffffffffffffffffffffffffff163373ffffffffffffffffffffffffffffffffffffffff1614156106e6576040517f08c379a00000000000000000000000000000000000000000000000000000000081526004016106dd90610fad565b60405180910390fd5b60001515600660149054906101000a900460ff1615151461073c576040517f08c379a000000000000000000000000000000000000000000000000000000000815260040161073390611019565b60405180910390fd5b80600960009054906101000a900473ffffffffffffffffffffffffffffffffffffffff1673ffffffffffffffffffffffffffffffffffffffff166370a08231336040518263ffffffff1660e01b81526004016107989190610c9a565b602060405180830381865afa1580156107b5573d6000803e3d6000fd5b505050506040513d601f19601f820116820180604052508101906107d9919061104e565b101561081a576040517f08c379a0000000000000000000000000000000000000000000000000000000008152600401610811906110c7565b60405180910390fd5b6000600960009054906101000a900473ffffffffffffffffffffffffffffffffffffffff1673ffffffffffffffffffffffffffffffffffffffff1663dd62ed3e33306040518363ffffffff1660e01b81526004016108799291906110e7565b602060405180830381865afa158015610896573d6000803e3d6000fd5b505050506040513d601f19601f820116820180604052508101906108ba919061104e565b14156108fb576040517f08c379a00000000000000000000000000000000000000000000000000000000081526004016108f290611182565b60405180910390fd5b80600960009054906101000a900473ffffffffffffffffffffffffffffffffffffffff1673ffffffffffffffffffffffffffffffffffffffff1663dd62ed3e33306040518363ffffffff1660e01b81526004016109599291906110e7565b602060405180830381865afa158015610976573d6000803e3d6000fd5b505050506040513d601f19601f8201168201806040525081019061099a919061104e565b10156109db576040517f08c379a00000000000000000000000000000000000000000000000000000000081526004016109d290611214565b60405180910390fd5b33600160006101000a81548173ffffffffffffffffffffffffffffffffffffffff021916908373ffffffffffffffffffffffffffffffffffffffff160217905550600960009054906101000a900473ffffffffffffffffffffffffffffffffffffffff1673ffffffffffffffffffffffffffffffffffffffff166323b872dd600160009054906101000a900473ffffffffffffffffffffffffffffffffffffffff1660008054906101000a900473ffffffffffffffffffffffffffffffffffffffff16846040518463ffffffff1660e01b8152600401610abd93929190611234565b6020604051808303816000875af1158015610adc573d6000803e3d6000fd5b505050506040513d601f19601f82011682018060405250810190610b009190611297565b50600a60009054906101000a900473ffffffffffffffffffffffffffffffffffffffff1673ffffffffffffffffffffffffffffffffffffffff166323b872dd60008054906101000a900473ffffffffffffffffffffffffffffffffffffffff16600160009054906101000a900473ffffffffffffffffffffffffffffffffffffffff166004546040518463ffffffff1660e01b8152600401610ba493929190611234565b600060405180830381600087803b158015610bbe57600080fd5b505af1158015610bd2573d6000803e3d6000fd5b505050507f349f939aaa1895cee67485b264474f0d2a1aac01083917b8ea9f96e4036cbb27600160009054906101000a900473ffffffffffffffffffffffffffffffffffffffff1682604051610c299291906112c4565b60405180910390a1610c39610c3c565b50565b6001600660146101000a81548160ff021916908315150217905550565b600073ffffffffffffffffffffffffffffffffffffffff82169050919050565b6000610c8482610c59565b9050919050565b610c9481610c79565b82525050565b6000602082019050610caf6000830184610c8b565b92915050565b60008115159050919050565b610cca81610cb5565b82525050565b6000602082019050610ce56000830184610cc1565b92915050565b6000819050919050565b610cfe81610ceb565b82525050565b6000602082019050610d196000830184610cf5565b92915050565b600080fd5b610d2d81610ceb565b8114610d3857600080fd5b50565b600081359050610d4a81610d24565b92915050565b600060208284031215610d6657610d65610d1f565b5b6000610d7484828501610d3b565b91505092915050565b6000819050919050565b6000610da2610d9d610d9884610c59565b610d7d565b610c59565b9050919050565b6000610db482610d87565b9050919050565b6000610dc682610da9565b9050919050565b610dd681610dbb565b82525050565b6000602082019050610df16000830184610dcd565b92915050565b6000608082019050610e0c6000830187610cf5565b610e196020830186610cf5565b610e266040830185610c8b565b610e336060830184610c8b565b95945050505050565b6000610e4782610da9565b9050919050565b610e5781610e3c565b82525050565b6000602082019050610e726000830184610e4e565b92915050565b600082825260208201905092915050565b7f53616c653a20596f7520617265206e6f742073656c6c65722e00000000000000600082015250565b6000610ebf601983610e78565b9150610eca82610e89565b602082019050919050565b60006020820190508181036000830152610eee81610eb2565b9050919050565b7f63616c6c6572206973206e6f7420617070726f76656400000000000000000000600082015250565b6000610f2b601683610e78565b9150610f3682610ef5565b602082019050919050565b60006020820190508181036000830152610f5a81610f1e565b9050919050565b7f73656c6c65722063616e27742063616c6c20746869732066756e6374696f6e00600082015250565b6000610f97601f83610e78565b9150610fa282610f61565b602082019050919050565b60006020820190508181036000830152610fc681610f8a565b9050919050565b7f4e6f74206f6e2053616c65000000000000000000000000000000000000000000600082015250565b6000611003600b83610e78565b915061100e82610fcd565b602082019050919050565b6000602082019050818103600083015261103281610ff6565b9050919050565b60008151905061104881610d24565b92915050565b60006020828403121561106457611063610d1f565b5b600061107284828501611039565b91505092915050565b7f627579657220646f206e6f74206861766520656e6f75676820746f6b656e7300600082015250565b60006110b1601f83610e78565b91506110bc8261107b565b602082019050919050565b600060208201905081810360008301526110e0816110a4565b9050919050565b60006040820190506110fc6000830185610c8b565b6111096020830184610c8b565b9392505050565b7f627579657220646964206e6f7420617070726f7665207468697320636f6e747260008201527f6163740000000000000000000000000000000000000000000000000000000000602082015250565b600061116c602383610e78565b915061117782611110565b604082019050919050565b6000602082019050818103600083015261119b8161115f565b9050919050565b7f63616c6c657220617070726f7665206c65737320616d6f756e74206f6620746f60008201527f6b656e0000000000000000000000000000000000000000000000000000000000602082015250565b60006111fe602383610e78565b9150611209826111a2565b604082019050919050565b6000602082019050818103600083015261122d816111f1565b9050919050565b60006060820190506112496000830186610c8b565b6112566020830185610c8b565b6112636040830184610cf5565b949350505050565b61127481610cb5565b811461127f57600080fd5b50565b6000815190506112918161126b565b92915050565b6000602082840312156112ad576112ac610d1f565b5b60006112bb84828501611282565b91505092915050565b60006040820190506112d96000830185610c8b565b6112e66020830184610cf5565b939250505056fea2646970667358221220e7c3e0dbea11776bbad74aa07f688b9c17c8254f42f697cae377f1e38bfca0d764736f6c634300080a0033a26469706673582212206e19a9ac47d9266910a3366c9ff380b0f3087da3f3106e54aed1abb12d39800364736f6c634300080a0033",
  "immutableReferences": {},
  "source": "// SPDX-License-Identifier: MIT\r\npragma solidity ^0.8.4;\r\n\r\nimport \"./access/Ownable.sol\";\r\nimport \"./token/ERC20/ERC20.sol\";\r\nimport \"./token/ERC721/ERC721.sol\";\r\nimport \"./token/ERC20/IERC20.sol\";\r\nimport \"./MasterpieceNFT.sol\";\r\n\r\n/**\r\n * PJT  - Req.1-SC1 SaleFactory \r\n *    ,      .\r\n */\r\ncontract SaleFactory is Ownable {\r\n    address public admin; //      owner address\r\n    address[] public sales; //     Sale  \r\n    mapping(uint256 => address) saleContractAddress; // id -> Salecontract address \r\n\r\n    event NewSale(\r\n        address indexed _saleContract,\r\n        address indexed _owner,\r\n        uint256 _workId\r\n    );\r\n\r\n    constructor() {\r\n        admin = msg.sender;\r\n    }\r\n\r\n    /**\r\n     * @dev   . \r\n     */\r\n    function createSale(\r\n        uint256 itemId,\r\n        uint256 purchasePrice,\r\n        address currencyAddress,\r\n        address nftAddress\r\n    ) public returns (address) {\r\n        // TODO\r\n        address seller = msg.sender;\r\n        Sale instance = new Sale(admin, seller, itemId, purchasePrice, currencyAddress, nftAddress);\r\n        sales.push(address(instance));\r\n        saleContractAddress[itemId] = address(instance);\r\n        emit NewSale(address(instance), msg.sender, itemId);\r\n        return address(instance);\r\n    }\r\n\r\n    function allSales() public view returns (address[] memory) {\r\n        return sales;\r\n    }\r\n\r\n    function getSaleContractAddress(uint256 tokenId) public view returns (address) {\r\n        require(saleContractAddress[tokenId] != address(0), \"this token is not on sale\");\r\n        return saleContractAddress[tokenId];\r\n    }\r\n}\r\n\r\n/**\r\n *  PJT  - Req.1-SC2) Sale \r\n */\r\ncontract Sale {\r\n    //    \r\n    address public seller;\r\n    address public buyer;\r\n    address admin;\r\n    // uint256 public saleStartTime;\r\n    // uint256 public saleEndTime;\r\n    // uint256 public minPrice;\r\n    uint256 public purchasePrice;\r\n    uint256 public tokenId;\r\n    address public currencyAddress;\r\n    address public nftAddress;\r\n    bool public ended;\r\n\r\n    //    \r\n    address public highestBidder;\r\n    uint256 public highestBid;\r\n\r\n    IERC20 public SsafyTokenContract;\r\n    MasterpieceNFT public MasterpieceNFTContract;\r\n\r\n    event HighestBidIncereased(address bidder, uint256 amount);\r\n    event SaleEnded(address winner, uint256 amount);\r\n\r\n    constructor(\r\n        address _admin,\r\n        address _seller,\r\n        uint256 _tokenId,\r\n        // uint256 _minPrice,\r\n        uint256 _purchasePrice,\r\n        // uint256 startTime,\r\n        // uint256 endTime,\r\n        address _currencyAddress,\r\n        address _nftAddress\r\n    ) {\r\n        // require(_minPrice > 0);\r\n        tokenId = _tokenId;\r\n        // minPrice = _minPrice;\r\n        purchasePrice = _purchasePrice;\r\n        seller = _seller;\r\n        admin = _admin;\r\n        // saleStartTime = startTime;\r\n        // saleEndTime = endTime;\r\n        currencyAddress = _currencyAddress;\r\n        nftAddress = _nftAddress;\r\n        ended = false;\r\n        // erc20Contract = IERC20(_currencyAddress);\r\n        // erc721Constract = IERC721(_nftAddress);\r\n        SsafyTokenContract = IERC20(_currencyAddress);\r\n        MasterpieceNFTContract = MasterpieceNFT(_nftAddress);\r\n    }\r\n\r\n    function bid(uint256 bid_amount) public {\r\n        // TODO\r\n    }\r\n\r\n    function purchase(uint256 price) public {\r\n        // TODO\r\n        require(msg.sender != seller, \"seller can't call this function\");\r\n        require(ended == false, \"Not on Sale\");\r\n        require(SsafyTokenContract.balanceOf(msg.sender) >= price, \"buyer do not have enough tokens\");\r\n        require(SsafyTokenContract.allowance(msg.sender, address(this)) != 0, \"buyer did not approve this contract\");\r\n        require(SsafyTokenContract.allowance(msg.sender, address(this)) >= price, \"caller approve less amount of token\");\r\n        buyer = msg.sender;\r\n        SsafyTokenContract.transferFrom(buyer, seller, price);\r\n        MasterpieceNFTContract.transferFrom(seller, buyer, tokenId);\r\n        emit SaleEnded(buyer, price);\r\n        _end();\r\n    }\r\n\r\n    function confirmItem() public {\r\n        // TODO \r\n    }\r\n    \r\n    // NFT  \r\n    function cancelSales() public onlySeller {\r\n        // TODO\r\n        require(msg.sender == seller || msg.sender == admin, \"caller is not approved\");\r\n        _end();\r\n    }\r\n\r\n    // function getTimeLeft() public view returns (int256) {\r\n    //     return (int256)(saleEndTime - block.timestamp);\r\n    // }\r\n\r\n    function getSaleInfo()\r\n        public\r\n        view\r\n        returns (\r\n            uint256,\r\n            uint256,\r\n            address,\r\n            address\r\n        )\r\n    {\r\n        return (\r\n            purchasePrice,\r\n            tokenId,\r\n            currencyAddress,\r\n            nftAddress\r\n        );\r\n    }\r\n\r\n    function getHighestBid() public view returns(uint256){\r\n        return highestBid;\r\n    }\r\n\r\n    // internal  private     _  .\r\n    function _end() internal {\r\n        ended = true;\r\n    }\r\n\r\n    function _getCurrencyAmount() private view returns (uint256) {\r\n        return SsafyTokenContract.balanceOf(msg.sender);\r\n    }\r\n\r\n    // modifier       . \r\n    modifier onlySeller() {\r\n        require(msg.sender == seller || msg.sender == admin, \"Sale: You are not seller.\");\r\n        _;\r\n    }\r\n\r\n    // modifier onlyAfterStart() {\r\n    //     require(\r\n    //         block.timestamp >= saleStartTime,\r\n    //         \"Sale: This sale is not started.\"\r\n    //     );\r\n    //     _;\r\n    // }\r\n}\r\n",
  "sourcePath": "C:\\Users\\SSAFY\\PJT2\\S07P22A508\\smart-contracts\\contracts\\SaleFactory.sol",
  "compiler": {
    "name": "solc",
    "version": "0.8.10+commit.fc410830.Emscripten.clang"
  },
  "schemaVersion": "3.4.10",
  "updatedAt": "2022-10-02T15:08:08.351Z",
  "networkType": "ethereum",
  "devdoc": {
    "kind": "dev",
    "methods": {
      "createSale(uint256,uint256,address,address)": {
        "details": "  . "
      },
      "owner()": {
        "details": "Returns the address of the current owner."
      },
      "renounceOwnership()": {
        "details": "Leaves the contract without owner. It will not be possible to call `onlyOwner` functions anymore. Can only be called by the current owner. NOTE: Renouncing ownership will leave the contract without an owner, thereby removing any functionality that is only available to the owner."
      },
      "transferOwnership(address)": {
        "details": "Transfers ownership of the contract to a new account (`newOwner`). Can only be called by the current owner."
      }
    },
    "version": 1
  },
  "userdoc": {
    "kind": "user",
    "methods": {},
    "notice": "PJT  - Req.1-SC1 SaleFactory     ,      .",
    "version": 1
  }
}