{
  "contractName": "Sale",
  "abi": [
    {
      "inputs": [
        {
          "internalType": "address",
          "name": "_admin",
          "type": "address"
        },
        {
          "internalType": "address",
          "name": "_seller",
          "type": "address"
        },
        {
          "internalType": "uint256",
          "name": "_tokenId",
          "type": "uint256"
        },
        {
          "internalType": "uint256",
          "name": "_purchasePrice",
          "type": "uint256"
        },
        {
          "internalType": "address",
          "name": "_currencyAddress",
          "type": "address"
        },
        {
          "internalType": "address",
          "name": "_nftAddress",
          "type": "address"
        }
      ],
      "stateMutability": "nonpayable",
      "type": "constructor"
    },
    {
      "anonymous": false,
      "inputs": [
        {
          "indexed": false,
          "internalType": "address",
          "name": "bidder",
          "type": "address"
        },
        {
          "indexed": false,
          "internalType": "uint256",
          "name": "amount",
          "type": "uint256"
        }
      ],
      "name": "HighestBidIncereased",
      "type": "event"
    },
    {
      "anonymous": false,
      "inputs": [
        {
          "indexed": false,
          "internalType": "address",
          "name": "winner",
          "type": "address"
        },
        {
          "indexed": false,
          "internalType": "uint256",
          "name": "amount",
          "type": "uint256"
        }
      ],
      "name": "SaleEnded",
      "type": "event"
    },
    {
      "inputs": [],
      "name": "MasterpieceNFTContract",
      "outputs": [
        {
          "internalType": "contract MasterpieceNFT",
          "name": "",
          "type": "address"
        }
      ],
      "stateMutability": "view",
      "type": "function"
    },
    {
      "inputs": [],
      "name": "SsafyTokenContract",
      "outputs": [
        {
          "internalType": "contract SsafyToken",
          "name": "",
          "type": "address"
        }
      ],
      "stateMutability": "view",
      "type": "function"
    },
    {
      "inputs": [],
      "name": "buyer",
      "outputs": [
        {
          "internalType": "address",
          "name": "",
          "type": "address"
        }
      ],
      "stateMutability": "view",
      "type": "function"
    },
    {
      "inputs": [],
      "name": "currencyAddress",
      "outputs": [
        {
          "internalType": "address",
          "name": "",
          "type": "address"
        }
      ],
      "stateMutability": "view",
      "type": "function"
    },
    {
      "inputs": [],
      "name": "ended",
      "outputs": [
        {
          "internalType": "bool",
          "name": "",
          "type": "bool"
        }
      ],
      "stateMutability": "view",
      "type": "function"
    },
    {
      "inputs": [],
      "name": "highestBid",
      "outputs": [
        {
          "internalType": "uint256",
          "name": "",
          "type": "uint256"
        }
      ],
      "stateMutability": "view",
      "type": "function"
    },
    {
      "inputs": [],
      "name": "highestBidder",
      "outputs": [
        {
          "internalType": "address",
          "name": "",
          "type": "address"
        }
      ],
      "stateMutability": "view",
      "type": "function"
    },
    {
      "inputs": [],
      "name": "nftAddress",
      "outputs": [
        {
          "internalType": "address",
          "name": "",
          "type": "address"
        }
      ],
      "stateMutability": "view",
      "type": "function"
    },
    {
      "inputs": [],
      "name": "purchasePrice",
      "outputs": [
        {
          "internalType": "uint256",
          "name": "",
          "type": "uint256"
        }
      ],
      "stateMutability": "view",
      "type": "function"
    },
    {
      "inputs": [],
      "name": "seller",
      "outputs": [
        {
          "internalType": "address",
          "name": "",
          "type": "address"
        }
      ],
      "stateMutability": "view",
      "type": "function"
    },
    {
      "inputs": [],
      "name": "tokenId",
      "outputs": [
        {
          "internalType": "uint256",
          "name": "",
          "type": "uint256"
        }
      ],
      "stateMutability": "view",
      "type": "function"
    },
    {
      "inputs": [
        {
          "internalType": "uint256",
          "name": "bid_amount",
          "type": "uint256"
        }
      ],
      "name": "bid",
      "outputs": [],
      "stateMutability": "nonpayable",
      "type": "function"
    },
    {
      "inputs": [
        {
          "internalType": "uint256",
          "name": "price",
          "type": "uint256"
        }
      ],
      "name": "purchase",
      "outputs": [],
      "stateMutability": "nonpayable",
      "type": "function"
    },
    {
      "inputs": [],
      "name": "confirmItem",
      "outputs": [],
      "stateMutability": "nonpayable",
      "type": "function"
    },
    {
      "inputs": [],
      "name": "cancelSales",
      "outputs": [],
      "stateMutability": "nonpayable",
      "type": "function"
    },
    {
      "inputs": [],
      "name": "getSaleInfo",
      "outputs": [
        {
          "internalType": "uint256",
          "name": "",
          "type": "uint256"
        },
        {
          "internalType": "uint256",
          "name": "",
          "type": "uint256"
        },
        {
          "internalType": "address",
          "name": "",
          "type": "address"
        },
        {
          "internalType": "address",
          "name": "",
          "type": "address"
        }
      ],
      "stateMutability": "view",
      "type": "function"
    },
    {
      "inputs": [],
      "name": "getHighestBid",
      "outputs": [
        {
          "internalType": "uint256",
          "name": "",
          "type": "uint256"
        }
      ],
      "stateMutability": "view",
      "type": "function"
    }
  ],
  "bytecode": "0x60806040523480156200001157600080fd5b50604051620014eb380380620014eb833981810160405281019062000037919062000296565b8360048190555082600381905550846000806101000a81548173ffffffffffffffffffffffffffffffffffffffff021916908373ffffffffffffffffffffffffffffffffffffffff16021790555085600260006101000a81548173ffffffffffffffffffffffffffffffffffffffff021916908373ffffffffffffffffffffffffffffffffffffffff16021790555081600560006101000a81548173ffffffffffffffffffffffffffffffffffffffff021916908373ffffffffffffffffffffffffffffffffffffffff16021790555080600660006101000a81548173ffffffffffffffffffffffffffffffffffffffff021916908373ffffffffffffffffffffffffffffffffffffffff1602179055506000600660146101000a81548160ff02191690831515021790555081600960006101000a81548173ffffffffffffffffffffffffffffffffffffffff021916908373ffffffffffffffffffffffffffffffffffffffff16021790555080600a60006101000a81548173ffffffffffffffffffffffffffffffffffffffff021916908373ffffffffffffffffffffffffffffffffffffffff16021790555050505050505062000332565b600080fd5b600073ffffffffffffffffffffffffffffffffffffffff82169050919050565b60006200022382620001f6565b9050919050565b620002358162000216565b81146200024157600080fd5b50565b60008151905062000255816200022a565b92915050565b6000819050919050565b62000270816200025b565b81146200027c57600080fd5b50565b600081519050620002908162000265565b92915050565b60008060008060008060c08789031215620002b657620002b5620001f1565b5b6000620002c689828a0162000244565b9650506020620002d989828a0162000244565b9550506040620002ec89828a016200027f565b9450506060620002ff89828a016200027f565b93505060806200031289828a0162000244565b92505060a06200032589828a0162000244565b9150509295509295509295565b6111a980620003426000396000f3fe608060405234801561001057600080fd5b506004361061010b5760003560e01c80637150d8ae116100a2578063d57bde7911610071578063d57bde791461024e578063db83694c1461026c578063defd6c5f1461028d578063ec2bbbdb146102ab578063efef39a1146102c95761010b565b80637150d8ae146101ea5780638b78a49f14610208578063903e329c1461022657806391f90157146102305761010b565b80631c1cb323116100de5780631c1cb32314610174578063454a2ab3146101925780634979440a146101ae5780635bf8633a146101cc5761010b565b806308551a53146101105780630a7f463f1461012e57806312fa6feb1461013857806317d70f7c14610156575b600080fd5b6101186102e5565b6040516101259190610b8c565b60405180910390f35b610136610309565b005b61014061030b565b60405161014d9190610bc2565b60405180910390f35b61015e61031e565b60405161016b9190610bf6565b60405180910390f35b61017c610324565b6040516101899190610b8c565b60405180910390f35b6101ac60048036038101906101a79190610c42565b61034a565b005b6101b661034d565b6040516101c39190610bf6565b60405180910390f35b6101d4610357565b6040516101e19190610b8c565b60405180910390f35b6101f261037d565b6040516101ff9190610b8c565b60405180910390f35b6102106103a3565b60405161021d9190610cce565b60405180910390f35b61022e6103c9565b005b6102386104b1565b6040516102459190610b8c565b60405180910390f35b6102566104d7565b6040516102639190610bf6565b60405180910390f35b6102746104dd565b6040516102849493929190610ce9565b60405180910390f35b61029561053d565b6040516102a29190610bf6565b60405180910390f35b6102b3610543565b6040516102c09190610d4f565b60405180910390f35b6102e360048036038101906102de9190610c42565b610569565b005b60008054906101000a900473ffffffffffffffffffffffffffffffffffffffff1681565b565b600660149054906101000a900460ff1681565b60045481565b600560009054906101000a900473ffffffffffffffffffffffffffffffffffffffff1681565b50565b6000600854905090565b600660009054906101000a900473ffffffffffffffffffffffffffffffffffffffff1681565b600160009054906101000a900473ffffffffffffffffffffffffffffffffffffffff1681565b600a60009054906101000a900473ffffffffffffffffffffffffffffffffffffffff1681565b60008054906101000a900473ffffffffffffffffffffffffffffffffffffffff1673ffffffffffffffffffffffffffffffffffffffff163373ffffffffffffffffffffffffffffffffffffffff1614806104705750600260009054906101000a900473ffffffffffffffffffffffffffffffffffffffff1673ffffffffffffffffffffffffffffffffffffffff163373ffffffffffffffffffffffffffffffffffffffff16145b6104af576040517f08c379a00000000000000000000000000000000000000000000000000000000081526004016104a690610dc7565b60405180910390fd5b565b600760009054906101000a900473ffffffffffffffffffffffffffffffffffffffff1681565b60085481565b600080600080600354600454600560009054906101000a900473ffffffffffffffffffffffffffffffffffffffff16600660009054906101000a900473ffffffffffffffffffffffffffffffffffffffff16935093509350935090919293565b60035481565b600960009054906101000a900473ffffffffffffffffffffffffffffffffffffffff1681565b60008054906101000a900473ffffffffffffffffffffffffffffffffffffffff1673ffffffffffffffffffffffffffffffffffffffff163373ffffffffffffffffffffffffffffffffffffffff1614156105f8576040517f08c379a00000000000000000000000000000000000000000000000000000000081526004016105ef90610e33565b60405180910390fd5b60001515600660149054906101000a900460ff1615151461064e576040517f08c379a000000000000000000000000000000000000000000000000000000000815260040161064590610e9f565b60405180910390fd5b80600960009054906101000a900473ffffffffffffffffffffffffffffffffffffffff1673ffffffffffffffffffffffffffffffffffffffff166370a08231336040518263ffffffff1660e01b81526004016106aa9190610b8c565b602060405180830381865afa1580156106c7573d6000803e3d6000fd5b505050506040513d601f19601f820116820180604052508101906106eb9190610ed4565b101561072c576040517f08c379a000000000000000000000000000000000000000000000000000000000815260040161072390610f4d565b60405180910390fd5b6000600960009054906101000a900473ffffffffffffffffffffffffffffffffffffffff1673ffffffffffffffffffffffffffffffffffffffff1663dd62ed3e33306040518363ffffffff1660e01b815260040161078b929190610f6d565b602060405180830381865afa1580156107a8573d6000803e3d6000fd5b505050506040513d601f19601f820116820180604052508101906107cc9190610ed4565b141561080d576040517f08c379a000000000000000000000000000000000000000000000000000000000815260040161080490611008565b60405180910390fd5b80600960009054906101000a900473ffffffffffffffffffffffffffffffffffffffff1673ffffffffffffffffffffffffffffffffffffffff1663dd62ed3e33306040518363ffffffff1660e01b815260040161086b929190610f6d565b602060405180830381865afa158015610888573d6000803e3d6000fd5b505050506040513d601f19601f820116820180604052508101906108ac9190610ed4565b10156108ed576040517f08c379a00000000000000000000000000000000000000000000000000000000081526004016108e49061109a565b60405180910390fd5b33600160006101000a81548173ffffffffffffffffffffffffffffffffffffffff021916908373ffffffffffffffffffffffffffffffffffffffff160217905550600960009054906101000a900473ffffffffffffffffffffffffffffffffffffffff1673ffffffffffffffffffffffffffffffffffffffff166323b872dd600160009054906101000a900473ffffffffffffffffffffffffffffffffffffffff1660008054906101000a900473ffffffffffffffffffffffffffffffffffffffff16846040518463ffffffff1660e01b81526004016109cf939291906110ba565b6020604051808303816000875af11580156109ee573d6000803e3d6000fd5b505050506040513d601f19601f82011682018060405250810190610a12919061111d565b50600a60009054906101000a900473ffffffffffffffffffffffffffffffffffffffff1673ffffffffffffffffffffffffffffffffffffffff166323b872dd30600160009054906101000a900473ffffffffffffffffffffffffffffffffffffffff166004546040518463ffffffff1660e01b8152600401610a96939291906110ba565b600060405180830381600087803b158015610ab057600080fd5b505af1158015610ac4573d6000803e3d6000fd5b505050507f349f939aaa1895cee67485b264474f0d2a1aac01083917b8ea9f96e4036cbb27600160009054906101000a900473ffffffffffffffffffffffffffffffffffffffff1682604051610b1b92919061114a565b60405180910390a1610b2b610b2e565b50565b6001600660146101000a81548160ff021916908315150217905550565b600073ffffffffffffffffffffffffffffffffffffffff82169050919050565b6000610b7682610b4b565b9050919050565b610b8681610b6b565b82525050565b6000602082019050610ba16000830184610b7d565b92915050565b60008115159050919050565b610bbc81610ba7565b82525050565b6000602082019050610bd76000830184610bb3565b92915050565b6000819050919050565b610bf081610bdd565b82525050565b6000602082019050610c0b6000830184610be7565b92915050565b600080fd5b610c1f81610bdd565b8114610c2a57600080fd5b50565b600081359050610c3c81610c16565b92915050565b600060208284031215610c5857610c57610c11565b5b6000610c6684828501610c2d565b91505092915050565b6000819050919050565b6000610c94610c8f610c8a84610b4b565b610c6f565b610b4b565b9050919050565b6000610ca682610c79565b9050919050565b6000610cb882610c9b565b9050919050565b610cc881610cad565b82525050565b6000602082019050610ce36000830184610cbf565b92915050565b6000608082019050610cfe6000830187610be7565b610d0b6020830186610be7565b610d186040830185610b7d565b610d256060830184610b7d565b95945050505050565b6000610d3982610c9b565b9050919050565b610d4981610d2e565b82525050565b6000602082019050610d646000830184610d40565b92915050565b600082825260208201905092915050565b7f53616c653a20596f7520617265206e6f742073656c6c65722e00000000000000600082015250565b6000610db1601983610d6a565b9150610dbc82610d7b565b602082019050919050565b60006020820190508181036000830152610de081610da4565b9050919050565b7f73656c6c65722063616e27742063616c6c20746869732066756e6374696f6e00600082015250565b6000610e1d601f83610d6a565b9150610e2882610de7565b602082019050919050565b60006020820190508181036000830152610e4c81610e10565b9050919050565b7f4e6f74206f6e2053616c65000000000000000000000000000000000000000000600082015250565b6000610e89600b83610d6a565b9150610e9482610e53565b602082019050919050565b60006020820190508181036000830152610eb881610e7c565b9050919050565b600081519050610ece81610c16565b92915050565b600060208284031215610eea57610ee9610c11565b5b6000610ef884828501610ebf565b91505092915050565b7f627579657220646f206e6f74206861766520656e6f75676820746f6b656e7300600082015250565b6000610f37601f83610d6a565b9150610f4282610f01565b602082019050919050565b60006020820190508181036000830152610f6681610f2a565b9050919050565b6000604082019050610f826000830185610b7d565b610f8f6020830184610b7d565b9392505050565b7f627579657220646964206e6f7420617070726f7665207468697320636f6e747260008201527f6163740000000000000000000000000000000000000000000000000000000000602082015250565b6000610ff2602383610d6a565b9150610ffd82610f96565b604082019050919050565b6000602082019050818103600083015261102181610fe5565b9050919050565b7f63616c6c657220617070726f7665206c65737320616d6f756e74206f6620746f60008201527f6b656e0000000000000000000000000000000000000000000000000000000000602082015250565b6000611084602383610d6a565b915061108f82611028565b604082019050919050565b600060208201905081810360008301526110b381611077565b9050919050565b60006060820190506110cf6000830186610b7d565b6110dc6020830185610b7d565b6110e96040830184610be7565b949350505050565b6110fa81610ba7565b811461110557600080fd5b50565b600081519050611117816110f1565b92915050565b60006020828403121561113357611132610c11565b5b600061114184828501611108565b91505092915050565b600060408201905061115f6000830185610b7d565b61116c6020830184610be7565b939250505056fea26469706673582212204c3d7d9facceaeaaaf2d05c4c871909669710ca6d48e06b73c73865c68c53aa064736f6c634300080a0033",
  "immutableReferences": {},
  "source": "// SPDX-License-Identifier: MIT\r\npragma solidity ^0.8.4;\r\n\r\nimport \"./access/Ownable.sol\";\r\nimport \"./token/ERC20/ERC20.sol\";\r\nimport \"./token/ERC721/ERC721.sol\";\r\nimport \"./MasterpieceNFT.sol\";\r\nimport \"./SsafyToken.sol\";\r\n\r\n/**\r\n * PJT  - Req.1-SC1 SaleFactory \r\n *    ,      .\r\n */\r\ncontract SaleFactory is Ownable {\r\n    address public admin; //      owner address\r\n    address[] public sales; //     Sale  \r\n    mapping(uint256 => address) saleContractAddress; // id -> Salecontract address \r\n\r\n    event NewSale(\r\n        address indexed _saleContract,\r\n        address indexed _owner,\r\n        uint256 _workId\r\n    );\r\n\r\n    constructor() {\r\n        admin = msg.sender;\r\n    }\r\n\r\n    /**\r\n     * @dev   . \r\n     */\r\n    function createSale(\r\n        uint256 itemId,\r\n        uint256 purchasePrice,\r\n        address currencyAddress,\r\n        address nftAddress\r\n    ) public returns (address) {\r\n        // TODO\r\n        address seller = msg.sender;\r\n        Sale instance = new Sale(admin, seller, itemId, purchasePrice, currencyAddress, nftAddress);\r\n        sales.push(address(instance));\r\n        saleContractAddress[itemId] = address(instance);\r\n        emit NewSale(address(instance), msg.sender, itemId);\r\n        return address(instance);\r\n    }\r\n\r\n    function allSales() public view returns (address[] memory) {\r\n        return sales;\r\n    }\r\n\r\n    function getSaleContractAddress(uint256 tokenId) public view returns (address) {\r\n        require(saleContractAddress[tokenId] != address(0), \"this token is not on sale\");\r\n        return saleContractAddress[tokenId];\r\n    }\r\n}\r\n\r\n/**\r\n *  PJT  - Req.1-SC2) Sale \r\n */\r\ncontract Sale {\r\n    //    \r\n    address public seller;\r\n    address public buyer;\r\n    address admin;\r\n    // uint256 public saleStartTime;\r\n    // uint256 public saleEndTime;\r\n    // uint256 public minPrice;\r\n    uint256 public purchasePrice;\r\n    uint256 public tokenId;\r\n    address public currencyAddress;\r\n    address public nftAddress;\r\n    bool public ended;\r\n\r\n    //    \r\n    address public highestBidder;\r\n    uint256 public highestBid;\r\n\r\n    SsafyToken public SsafyTokenContract;\r\n    MasterpieceNFT public MasterpieceNFTContract;\r\n\r\n    event HighestBidIncereased(address bidder, uint256 amount);\r\n    event SaleEnded(address winner, uint256 amount);\r\n\r\n    constructor(\r\n        address _admin,\r\n        address _seller,\r\n        uint256 _tokenId,\r\n        // uint256 _minPrice,\r\n        uint256 _purchasePrice,\r\n        // uint256 startTime,\r\n        // uint256 endTime,\r\n        address _currencyAddress,\r\n        address _nftAddress\r\n    ) {\r\n        // require(_minPrice > 0);\r\n        tokenId = _tokenId;\r\n        // minPrice = _minPrice;\r\n        purchasePrice = _purchasePrice;\r\n        seller = _seller;\r\n        admin = _admin;\r\n        // saleStartTime = startTime;\r\n        // saleEndTime = endTime;\r\n        currencyAddress = _currencyAddress;\r\n        nftAddress = _nftAddress;\r\n        ended = false;\r\n        // erc20Contract = IERC20(_currencyAddress);\r\n        // erc721Constract = IERC721(_nftAddress);\r\n        SsafyTokenContract = SsafyToken(_currencyAddress);\r\n        MasterpieceNFTContract = MasterpieceNFT(_nftAddress);\r\n    }\r\n\r\n    function bid(uint256 bid_amount) public {\r\n        // TODO\r\n    }\r\n\r\n    function purchase(uint256 price) public {\r\n        // TODO\r\n        require(msg.sender != seller, \"seller can't call this function\");\r\n        require(ended == false, \"Not on Sale\");\r\n        require(SsafyTokenContract.balanceOf(msg.sender) >= price, \"buyer do not have enough tokens\");\r\n        require(SsafyTokenContract.allowance(msg.sender, address(this)) != 0, \"buyer did not approve this contract\");\r\n        require(SsafyTokenContract.allowance(msg.sender, address(this)) >= price, \"caller approve less amount of token\");\r\n        buyer = msg.sender;\r\n        SsafyTokenContract.transferFrom(buyer, seller, price);\r\n        MasterpieceNFTContract.transferFrom(address(this), buyer, tokenId);\r\n        emit SaleEnded(buyer, price);\r\n        _end();\r\n    }\r\n\r\n    function confirmItem() public {\r\n        // TODO \r\n    }\r\n    \r\n    function cancelSales() public onlySeller {\r\n        // TODO\r\n    }\r\n\r\n    // function getTimeLeft() public view returns (int256) {\r\n    //     return (int256)(saleEndTime - block.timestamp);\r\n    // }\r\n\r\n    function getSaleInfo()\r\n        public\r\n        view\r\n        returns (\r\n            uint256,\r\n            uint256,\r\n            address,\r\n            address\r\n        )\r\n    {\r\n        return (\r\n            purchasePrice,\r\n            tokenId,\r\n            currencyAddress,\r\n            nftAddress\r\n        );\r\n    }\r\n\r\n    function getHighestBid() public view returns(uint256){\r\n        return highestBid;\r\n    }\r\n\r\n    // internal  private     _  .\r\n    function _end() internal {\r\n        ended = true;\r\n    }\r\n\r\n    function _getCurrencyAmount() private view returns (uint256) {\r\n        return SsafyTokenContract.balanceOf(msg.sender);\r\n    }\r\n\r\n    // modifier       . \r\n    modifier onlySeller() {\r\n        require(msg.sender == seller || msg.sender == admin, \"Sale: You are not seller.\");\r\n        _;\r\n    }\r\n\r\n    // modifier onlyAfterStart() {\r\n    //     require(\r\n    //         block.timestamp >= saleStartTime,\r\n    //         \"Sale: This sale is not started.\"\r\n    //     );\r\n    //     _;\r\n    // }\r\n}\r\n",
  "sourcePath": "C:\\Users\\SSAFY\\PJT2\\S07P22A508\\smart-contracts\\contracts\\SaleFactory.sol",
  "compiler": {
    "name": "solc",
    "version": "0.8.10+commit.fc410830.Emscripten.clang"
  },
  "schemaVersion": "3.4.10",
  "updatedAt": "2022-09-28T08:02:47.873Z",
  "devdoc": {
    "kind": "dev",
    "methods": {},
    "version": 1
  },
  "userdoc": {
    "kind": "user",
    "methods": {},
    "notice": "PJT  - Req.1-SC2) Sale ",
    "version": 1
  }
}