{
  "contractName": "SaleFactory",
  "abi": [
    {
      "inputs": [],
      "stateMutability": "nonpayable",
      "type": "constructor"
    },
    {
      "anonymous": false,
      "inputs": [
        {
          "indexed": true,
          "internalType": "address",
          "name": "_saleContract",
          "type": "address"
        },
        {
          "indexed": true,
          "internalType": "address",
          "name": "_owner",
          "type": "address"
        },
        {
          "indexed": false,
          "internalType": "uint256",
          "name": "_workId",
          "type": "uint256"
        }
      ],
      "name": "NewSale",
      "type": "event"
    },
    {
      "anonymous": false,
      "inputs": [
        {
          "indexed": true,
          "internalType": "address",
          "name": "previousOwner",
          "type": "address"
        },
        {
          "indexed": true,
          "internalType": "address",
          "name": "newOwner",
          "type": "address"
        }
      ],
      "name": "OwnershipTransferred",
      "type": "event"
    },
    {
      "inputs": [],
      "name": "admin",
      "outputs": [
        {
          "internalType": "address",
          "name": "",
          "type": "address"
        }
      ],
      "stateMutability": "view",
      "type": "function",
      "constant": true
    },
    {
      "inputs": [],
      "name": "owner",
      "outputs": [
        {
          "internalType": "address",
          "name": "",
          "type": "address"
        }
      ],
      "stateMutability": "view",
      "type": "function",
      "constant": true
    },
    {
      "inputs": [],
      "name": "renounceOwnership",
      "outputs": [],
      "stateMutability": "nonpayable",
      "type": "function"
    },
    {
      "inputs": [
        {
          "internalType": "uint256",
          "name": "",
          "type": "uint256"
        }
      ],
      "name": "sales",
      "outputs": [
        {
          "internalType": "address",
          "name": "",
          "type": "address"
        }
      ],
      "stateMutability": "view",
      "type": "function",
      "constant": true
    },
    {
      "inputs": [
        {
          "internalType": "address",
          "name": "newOwner",
          "type": "address"
        }
      ],
      "name": "transferOwnership",
      "outputs": [],
      "stateMutability": "nonpayable",
      "type": "function"
    },
    {
      "inputs": [
        {
          "internalType": "uint256",
          "name": "itemId",
          "type": "uint256"
        },
        {
          "internalType": "uint256",
          "name": "purchasePrice",
          "type": "uint256"
        },
        {
          "internalType": "address",
          "name": "currencyAddress",
          "type": "address"
        },
        {
          "internalType": "address",
          "name": "nftAddress",
          "type": "address"
        }
      ],
      "name": "createSale",
      "outputs": [
        {
          "internalType": "address",
          "name": "",
          "type": "address"
        }
      ],
      "stateMutability": "nonpayable",
      "type": "function"
    },
    {
      "inputs": [],
      "name": "allSales",
      "outputs": [
        {
          "internalType": "address[]",
          "name": "",
          "type": "address[]"
        }
      ],
      "stateMutability": "view",
      "type": "function",
      "constant": true
    },
    {
      "inputs": [
        {
          "internalType": "uint256",
          "name": "tokenId",
          "type": "uint256"
        }
      ],
      "name": "getSaleContractAddress",
      "outputs": [
        {
          "internalType": "address",
          "name": "",
          "type": "address"
        }
      ],
      "stateMutability": "view",
      "type": "function",
      "constant": true
    }
  ],
  "bytecode": "0x608060405234801561001057600080fd5b5061002d61002261007360201b60201c565b61007b60201b60201c565b33600160006101000a81548173ffffffffffffffffffffffffffffffffffffffff021916908373ffffffffffffffffffffffffffffffffffffffff16021790555061013f565b600033905090565b60008060009054906101000a900473ffffffffffffffffffffffffffffffffffffffff169050816000806101000a81548173ffffffffffffffffffffffffffffffffffffffff021916908373ffffffffffffffffffffffffffffffffffffffff1602179055508173ffffffffffffffffffffffffffffffffffffffff168173ffffffffffffffffffffffffffffffffffffffff167f8be0079c531659141344cd1fd0a4f28419497f9722a3daafe3b4186f6b6457e060405160405180910390a35050565b6121b98061014e6000396000f3fe60806040523480156200001157600080fd5b5060043610620000945760003560e01c8063908c18071162000063578063908c1807146200011f578063b5f522f71462000155578063f2fde38b146200018b578063f851a44014620001ab5762000094565b80631df3574f14620000995780636eafecba14620000cf578063715018a614620000f15780638da5cb5b14620000fd575b600080fd5b620000b76004803603810190620000b191906200087a565b620001cd565b604051620000c69190620008fd565b60405180910390f35b620000d962000365565b604051620000e89190620009e8565b60405180910390f35b620000fb620003f5565b005b6200010762000486565b604051620001169190620008fd565b60405180910390f35b6200013d600480360381019062000137919062000a0c565b620004af565b6040516200014c9190620008fd565b60405180910390f35b6200017360048036038101906200016d919062000a0c565b62000591565b604051620001829190620008fd565b60405180910390f35b620001a96004803603810190620001a3919062000a3e565b620005d1565b005b620001b5620006d5565b604051620001c49190620008fd565b60405180910390f35b6000803390506000600160009054906101000a900473ffffffffffffffffffffffffffffffffffffffff1682888888886040516200020b90620007c7565b6200021c9695949392919062000a81565b604051809103906000f08015801562000239573d6000803e3d6000fd5b5090506002819080600181540180825580915050600190039060005260206000200160009091909190916101000a81548173ffffffffffffffffffffffffffffffffffffffff021916908373ffffffffffffffffffffffffffffffffffffffff160217905550806003600089815260200190815260200160002060006101000a81548173ffffffffffffffffffffffffffffffffffffffff021916908373ffffffffffffffffffffffffffffffffffffffff1602179055503373ffffffffffffffffffffffffffffffffffffffff168173ffffffffffffffffffffffffffffffffffffffff167f874bdb649427dfeceaa7f10beee59a823d3e45a6814f50bc18ba2adefd058e488960405162000350919062000aee565b60405180910390a38092505050949350505050565b60606002805480602002602001604051908101604052809291908181526020018280548015620003eb57602002820191906000526020600020905b8160009054906101000a900473ffffffffffffffffffffffffffffffffffffffff1673ffffffffffffffffffffffffffffffffffffffff1681526020019060010190808311620003a0575b5050505050905090565b620003ff620006fb565b73ffffffffffffffffffffffffffffffffffffffff166200041f62000486565b73ffffffffffffffffffffffffffffffffffffffff161462000478576040517f08c379a00000000000000000000000000000000000000000000000000000000081526004016200046f9062000b6c565b60405180910390fd5b62000484600062000703565b565b60008060009054906101000a900473ffffffffffffffffffffffffffffffffffffffff16905090565b60008073ffffffffffffffffffffffffffffffffffffffff166003600084815260200190815260200160002060009054906101000a900473ffffffffffffffffffffffffffffffffffffffff1673ffffffffffffffffffffffffffffffffffffffff16141562000556576040517f08c379a00000000000000000000000000000000000000000000000000000000081526004016200054d9062000bde565b60405180910390fd5b6003600083815260200190815260200160002060009054906101000a900473ffffffffffffffffffffffffffffffffffffffff169050919050565b60028181548110620005a257600080fd5b906000526020600020016000915054906101000a900473ffffffffffffffffffffffffffffffffffffffff1681565b620005db620006fb565b73ffffffffffffffffffffffffffffffffffffffff16620005fb62000486565b73ffffffffffffffffffffffffffffffffffffffff161462000654576040517f08c379a00000000000000000000000000000000000000000000000000000000081526004016200064b9062000b6c565b60405180910390fd5b600073ffffffffffffffffffffffffffffffffffffffff168173ffffffffffffffffffffffffffffffffffffffff161415620006c7576040517f08c379a0000000000000000000000000000000000000000000000000000000008152600401620006be9062000c76565b60405180910390fd5b620006d28162000703565b50565b600160009054906101000a900473ffffffffffffffffffffffffffffffffffffffff1681565b600033905090565b60008060009054906101000a900473ffffffffffffffffffffffffffffffffffffffff169050816000806101000a81548173ffffffffffffffffffffffffffffffffffffffff021916908373ffffffffffffffffffffffffffffffffffffffff1602179055508173ffffffffffffffffffffffffffffffffffffffff168173ffffffffffffffffffffffffffffffffffffffff167f8be0079c531659141344cd1fd0a4f28419497f9722a3daafe3b4186f6b6457e060405160405180910390a35050565b6114eb8062000c9983390190565b600080fd5b6000819050919050565b620007ef81620007da565b8114620007fb57600080fd5b50565b6000813590506200080f81620007e4565b92915050565b600073ffffffffffffffffffffffffffffffffffffffff82169050919050565b6000620008428262000815565b9050919050565b620008548162000835565b81146200086057600080fd5b50565b600081359050620008748162000849565b92915050565b60008060008060808587031215620008975762000896620007d5565b5b6000620008a787828801620007fe565b9450506020620008ba87828801620007fe565b9350506040620008cd8782880162000863565b9250506060620008e08782880162000863565b91505092959194509250565b620008f78162000835565b82525050565b6000602082019050620009146000830184620008ec565b92915050565b600081519050919050565b600082825260208201905092915050565b6000819050602082019050919050565b620009518162000835565b82525050565b600062000965838362000946565b60208301905092915050565b6000602082019050919050565b60006200098b826200091a565b62000997818562000925565b9350620009a48362000936565b8060005b83811015620009db578151620009bf888262000957565b9750620009cc8362000971565b925050600181019050620009a8565b5085935050505092915050565b6000602082019050818103600083015262000a0481846200097e565b905092915050565b60006020828403121562000a255762000a24620007d5565b5b600062000a3584828501620007fe565b91505092915050565b60006020828403121562000a575762000a56620007d5565b5b600062000a678482850162000863565b91505092915050565b62000a7b81620007da565b82525050565b600060c08201905062000a986000830189620008ec565b62000aa76020830188620008ec565b62000ab6604083018762000a70565b62000ac5606083018662000a70565b62000ad46080830185620008ec565b62000ae360a0830184620008ec565b979650505050505050565b600060208201905062000b05600083018462000a70565b92915050565b600082825260208201905092915050565b7f4f776e61626c653a2063616c6c6572206973206e6f7420746865206f776e6572600082015250565b600062000b5460208362000b0b565b915062000b618262000b1c565b602082019050919050565b6000602082019050818103600083015262000b878162000b45565b9050919050565b7f7468697320746f6b656e206973206e6f74206f6e2073616c6500000000000000600082015250565b600062000bc660198362000b0b565b915062000bd38262000b8e565b602082019050919050565b6000602082019050818103600083015262000bf98162000bb7565b9050919050565b7f4f776e61626c653a206e6577206f776e657220697320746865207a65726f206160008201527f6464726573730000000000000000000000000000000000000000000000000000602082015250565b600062000c5e60268362000b0b565b915062000c6b8262000c00565b604082019050919050565b6000602082019050818103600083015262000c918162000c4f565b905091905056fe60806040523480156200001157600080fd5b50604051620014eb380380620014eb833981810160405281019062000037919062000296565b8360048190555082600381905550846000806101000a81548173ffffffffffffffffffffffffffffffffffffffff021916908373ffffffffffffffffffffffffffffffffffffffff16021790555085600260006101000a81548173ffffffffffffffffffffffffffffffffffffffff021916908373ffffffffffffffffffffffffffffffffffffffff16021790555081600560006101000a81548173ffffffffffffffffffffffffffffffffffffffff021916908373ffffffffffffffffffffffffffffffffffffffff16021790555080600660006101000a81548173ffffffffffffffffffffffffffffffffffffffff021916908373ffffffffffffffffffffffffffffffffffffffff1602179055506000600660146101000a81548160ff02191690831515021790555081600960006101000a81548173ffffffffffffffffffffffffffffffffffffffff021916908373ffffffffffffffffffffffffffffffffffffffff16021790555080600a60006101000a81548173ffffffffffffffffffffffffffffffffffffffff021916908373ffffffffffffffffffffffffffffffffffffffff16021790555050505050505062000332565b600080fd5b600073ffffffffffffffffffffffffffffffffffffffff82169050919050565b60006200022382620001f6565b9050919050565b620002358162000216565b81146200024157600080fd5b50565b60008151905062000255816200022a565b92915050565b6000819050919050565b62000270816200025b565b81146200027c57600080fd5b50565b600081519050620002908162000265565b92915050565b60008060008060008060c08789031215620002b657620002b5620001f1565b5b6000620002c689828a0162000244565b9650506020620002d989828a0162000244565b9550506040620002ec89828a016200027f565b9450506060620002ff89828a016200027f565b93505060806200031289828a0162000244565b92505060a06200032589828a0162000244565b9150509295509295509295565b6111a980620003426000396000f3fe608060405234801561001057600080fd5b506004361061010b5760003560e01c80637150d8ae116100a2578063d57bde7911610071578063d57bde791461024e578063db83694c1461026c578063defd6c5f1461028d578063ec2bbbdb146102ab578063efef39a1146102c95761010b565b80637150d8ae146101ea5780638b78a49f14610208578063903e329c1461022657806391f90157146102305761010b565b80631c1cb323116100de5780631c1cb32314610174578063454a2ab3146101925780634979440a146101ae5780635bf8633a146101cc5761010b565b806308551a53146101105780630a7f463f1461012e57806312fa6feb1461013857806317d70f7c14610156575b600080fd5b6101186102e5565b6040516101259190610b8c565b60405180910390f35b610136610309565b005b61014061030b565b60405161014d9190610bc2565b60405180910390f35b61015e61031e565b60405161016b9190610bf6565b60405180910390f35b61017c610324565b6040516101899190610b8c565b60405180910390f35b6101ac60048036038101906101a79190610c42565b61034a565b005b6101b661034d565b6040516101c39190610bf6565b60405180910390f35b6101d4610357565b6040516101e19190610b8c565b60405180910390f35b6101f261037d565b6040516101ff9190610b8c565b60405180910390f35b6102106103a3565b60405161021d9190610cce565b60405180910390f35b61022e6103c9565b005b6102386104b1565b6040516102459190610b8c565b60405180910390f35b6102566104d7565b6040516102639190610bf6565b60405180910390f35b6102746104dd565b6040516102849493929190610ce9565b60405180910390f35b61029561053d565b6040516102a29190610bf6565b60405180910390f35b6102b3610543565b6040516102c09190610d4f565b60405180910390f35b6102e360048036038101906102de9190610c42565b610569565b005b60008054906101000a900473ffffffffffffffffffffffffffffffffffffffff1681565b565b600660149054906101000a900460ff1681565b60045481565b600560009054906101000a900473ffffffffffffffffffffffffffffffffffffffff1681565b50565b6000600854905090565b600660009054906101000a900473ffffffffffffffffffffffffffffffffffffffff1681565b600160009054906101000a900473ffffffffffffffffffffffffffffffffffffffff1681565b600a60009054906101000a900473ffffffffffffffffffffffffffffffffffffffff1681565b60008054906101000a900473ffffffffffffffffffffffffffffffffffffffff1673ffffffffffffffffffffffffffffffffffffffff163373ffffffffffffffffffffffffffffffffffffffff1614806104705750600260009054906101000a900473ffffffffffffffffffffffffffffffffffffffff1673ffffffffffffffffffffffffffffffffffffffff163373ffffffffffffffffffffffffffffffffffffffff16145b6104af576040517f08c379a00000000000000000000000000000000000000000000000000000000081526004016104a690610dc7565b60405180910390fd5b565b600760009054906101000a900473ffffffffffffffffffffffffffffffffffffffff1681565b60085481565b600080600080600354600454600560009054906101000a900473ffffffffffffffffffffffffffffffffffffffff16600660009054906101000a900473ffffffffffffffffffffffffffffffffffffffff16935093509350935090919293565b60035481565b600960009054906101000a900473ffffffffffffffffffffffffffffffffffffffff1681565b60008054906101000a900473ffffffffffffffffffffffffffffffffffffffff1673ffffffffffffffffffffffffffffffffffffffff163373ffffffffffffffffffffffffffffffffffffffff1614156105f8576040517f08c379a00000000000000000000000000000000000000000000000000000000081526004016105ef90610e33565b60405180910390fd5b60001515600660149054906101000a900460ff1615151461064e576040517f08c379a000000000000000000000000000000000000000000000000000000000815260040161064590610e9f565b60405180910390fd5b80600960009054906101000a900473ffffffffffffffffffffffffffffffffffffffff1673ffffffffffffffffffffffffffffffffffffffff166370a08231336040518263ffffffff1660e01b81526004016106aa9190610b8c565b602060405180830381865afa1580156106c7573d6000803e3d6000fd5b505050506040513d601f19601f820116820180604052508101906106eb9190610ed4565b101561072c576040517f08c379a000000000000000000000000000000000000000000000000000000000815260040161072390610f4d565b60405180910390fd5b6000600960009054906101000a900473ffffffffffffffffffffffffffffffffffffffff1673ffffffffffffffffffffffffffffffffffffffff1663dd62ed3e33306040518363ffffffff1660e01b815260040161078b929190610f6d565b602060405180830381865afa1580156107a8573d6000803e3d6000fd5b505050506040513d601f19601f820116820180604052508101906107cc9190610ed4565b141561080d576040517f08c379a000000000000000000000000000000000000000000000000000000000815260040161080490611008565b60405180910390fd5b80600960009054906101000a900473ffffffffffffffffffffffffffffffffffffffff1673ffffffffffffffffffffffffffffffffffffffff1663dd62ed3e33306040518363ffffffff1660e01b815260040161086b929190610f6d565b602060405180830381865afa158015610888573d6000803e3d6000fd5b505050506040513d601f19601f820116820180604052508101906108ac9190610ed4565b10156108ed576040517f08c379a00000000000000000000000000000000000000000000000000000000081526004016108e49061109a565b60405180910390fd5b33600160006101000a81548173ffffffffffffffffffffffffffffffffffffffff021916908373ffffffffffffffffffffffffffffffffffffffff160217905550600960009054906101000a900473ffffffffffffffffffffffffffffffffffffffff1673ffffffffffffffffffffffffffffffffffffffff166323b872dd600160009054906101000a900473ffffffffffffffffffffffffffffffffffffffff1660008054906101000a900473ffffffffffffffffffffffffffffffffffffffff16846040518463ffffffff1660e01b81526004016109cf939291906110ba565b6020604051808303816000875af11580156109ee573d6000803e3d6000fd5b505050506040513d601f19601f82011682018060405250810190610a12919061111d565b50600a60009054906101000a900473ffffffffffffffffffffffffffffffffffffffff1673ffffffffffffffffffffffffffffffffffffffff166323b872dd30600160009054906101000a900473ffffffffffffffffffffffffffffffffffffffff166004546040518463ffffffff1660e01b8152600401610a96939291906110ba565b600060405180830381600087803b158015610ab057600080fd5b505af1158015610ac4573d6000803e3d6000fd5b505050507f349f939aaa1895cee67485b264474f0d2a1aac01083917b8ea9f96e4036cbb27600160009054906101000a900473ffffffffffffffffffffffffffffffffffffffff1682604051610b1b92919061114a565b60405180910390a1610b2b610b2e565b50565b6001600660146101000a81548160ff021916908315150217905550565b600073ffffffffffffffffffffffffffffffffffffffff82169050919050565b6000610b7682610b4b565b9050919050565b610b8681610b6b565b82525050565b6000602082019050610ba16000830184610b7d565b92915050565b60008115159050919050565b610bbc81610ba7565b82525050565b6000602082019050610bd76000830184610bb3565b92915050565b6000819050919050565b610bf081610bdd565b82525050565b6000602082019050610c0b6000830184610be7565b92915050565b600080fd5b610c1f81610bdd565b8114610c2a57600080fd5b50565b600081359050610c3c81610c16565b92915050565b600060208284031215610c5857610c57610c11565b5b6000610c6684828501610c2d565b91505092915050565b6000819050919050565b6000610c94610c8f610c8a84610b4b565b610c6f565b610b4b565b9050919050565b6000610ca682610c79565b9050919050565b6000610cb882610c9b565b9050919050565b610cc881610cad565b82525050565b6000602082019050610ce36000830184610cbf565b92915050565b6000608082019050610cfe6000830187610be7565b610d0b6020830186610be7565b610d186040830185610b7d565b610d256060830184610b7d565b95945050505050565b6000610d3982610c9b565b9050919050565b610d4981610d2e565b82525050565b6000602082019050610d646000830184610d40565b92915050565b600082825260208201905092915050565b7f53616c653a20596f7520617265206e6f742073656c6c65722e00000000000000600082015250565b6000610db1601983610d6a565b9150610dbc82610d7b565b602082019050919050565b60006020820190508181036000830152610de081610da4565b9050919050565b7f73656c6c65722063616e27742063616c6c20746869732066756e6374696f6e00600082015250565b6000610e1d601f83610d6a565b9150610e2882610de7565b602082019050919050565b60006020820190508181036000830152610e4c81610e10565b9050919050565b7f4e6f74206f6e2053616c65000000000000000000000000000000000000000000600082015250565b6000610e89600b83610d6a565b9150610e9482610e53565b602082019050919050565b60006020820190508181036000830152610eb881610e7c565b9050919050565b600081519050610ece81610c16565b92915050565b600060208284031215610eea57610ee9610c11565b5b6000610ef884828501610ebf565b91505092915050565b7f627579657220646f206e6f74206861766520656e6f75676820746f6b656e7300600082015250565b6000610f37601f83610d6a565b9150610f4282610f01565b602082019050919050565b60006020820190508181036000830152610f6681610f2a565b9050919050565b6000604082019050610f826000830185610b7d565b610f8f6020830184610b7d565b9392505050565b7f627579657220646964206e6f7420617070726f7665207468697320636f6e747260008201527f6163740000000000000000000000000000000000000000000000000000000000602082015250565b6000610ff2602383610d6a565b9150610ffd82610f96565b604082019050919050565b6000602082019050818103600083015261102181610fe5565b9050919050565b7f63616c6c657220617070726f7665206c65737320616d6f756e74206f6620746f60008201527f6b656e0000000000000000000000000000000000000000000000000000000000602082015250565b6000611084602383610d6a565b915061108f82611028565b604082019050919050565b600060208201905081810360008301526110b381611077565b9050919050565b60006060820190506110cf6000830186610b7d565b6110dc6020830185610b7d565b6110e96040830184610be7565b949350505050565b6110fa81610ba7565b811461110557600080fd5b50565b600081519050611117816110f1565b92915050565b60006020828403121561113357611132610c11565b5b600061114184828501611108565b91505092915050565b600060408201905061115f6000830185610b7d565b61116c6020830184610be7565b939250505056fea26469706673582212206e7f814e445ef19c6e79097a990f827c87d37e98ebe490806680215cefa5b3ab64736f6c634300080a0033a26469706673582212201dcc20e0818795a0d3942b574626433c0c3c78a1fe80fdf4d44ecdec22be48d564736f6c634300080a0033",
  "immutableReferences": {},
  "source": "// SPDX-License-Identifier: MIT\r\npragma solidity ^0.8.4;\r\n\r\nimport \"./access/Ownable.sol\";\r\nimport \"./token/ERC20/ERC20.sol\";\r\nimport \"./token/ERC721/ERC721.sol\";\r\nimport \"./MasterpieceNFT.sol\";\r\nimport \"./SsafyToken.sol\";\r\n\r\n/**\r\n * PJT  - Req.1-SC1 SaleFactory \r\n *    ,      .\r\n */\r\ncontract SaleFactory is Ownable {\r\n    address public admin; //      owner address\r\n    address[] public sales; //     Sale  \r\n    mapping(uint256 => address) saleContractAddress; // id -> Salecontract address \r\n\r\n    event NewSale(\r\n        address indexed _saleContract,\r\n        address indexed _owner,\r\n        uint256 _workId\r\n    );\r\n\r\n    constructor() {\r\n        admin = msg.sender;\r\n    }\r\n\r\n    /**\r\n     * @dev   . \r\n     */\r\n    function createSale(\r\n        uint256 itemId,\r\n        uint256 purchasePrice,\r\n        address currencyAddress,\r\n        address nftAddress\r\n    ) public returns (address) {\r\n        // TODO\r\n        address seller = msg.sender;\r\n        Sale instance = new Sale(admin, seller, itemId, purchasePrice, currencyAddress, nftAddress);\r\n        sales.push(address(instance));\r\n        saleContractAddress[itemId] = address(instance);\r\n        emit NewSale(address(instance), msg.sender, itemId);\r\n        return address(instance);\r\n    }\r\n\r\n    function allSales() public view returns (address[] memory) {\r\n        return sales;\r\n    }\r\n\r\n    function getSaleContractAddress(uint256 tokenId) public view returns (address) {\r\n        require(saleContractAddress[tokenId] != address(0), \"this token is not on sale\");\r\n        return saleContractAddress[tokenId];\r\n    }\r\n}\r\n\r\n/**\r\n *  PJT  - Req.1-SC2) Sale \r\n */\r\ncontract Sale {\r\n    //    \r\n    address public seller;\r\n    address public buyer;\r\n    address admin;\r\n    // uint256 public saleStartTime;\r\n    // uint256 public saleEndTime;\r\n    // uint256 public minPrice;\r\n    uint256 public purchasePrice;\r\n    uint256 public tokenId;\r\n    address public currencyAddress;\r\n    address public nftAddress;\r\n    bool public ended;\r\n\r\n    //    \r\n    address public highestBidder;\r\n    uint256 public highestBid;\r\n\r\n    SsafyToken public SsafyTokenContract;\r\n    MasterpieceNFT public MasterpieceNFTContract;\r\n\r\n    event HighestBidIncereased(address bidder, uint256 amount);\r\n    event SaleEnded(address winner, uint256 amount);\r\n\r\n    constructor(\r\n        address _admin,\r\n        address _seller,\r\n        uint256 _tokenId,\r\n        // uint256 _minPrice,\r\n        uint256 _purchasePrice,\r\n        // uint256 startTime,\r\n        // uint256 endTime,\r\n        address _currencyAddress,\r\n        address _nftAddress\r\n    ) {\r\n        // require(_minPrice > 0);\r\n        tokenId = _tokenId;\r\n        // minPrice = _minPrice;\r\n        purchasePrice = _purchasePrice;\r\n        seller = _seller;\r\n        admin = _admin;\r\n        // saleStartTime = startTime;\r\n        // saleEndTime = endTime;\r\n        currencyAddress = _currencyAddress;\r\n        nftAddress = _nftAddress;\r\n        ended = false;\r\n        // erc20Contract = IERC20(_currencyAddress);\r\n        // erc721Constract = IERC721(_nftAddress);\r\n        SsafyTokenContract = SsafyToken(_currencyAddress);\r\n        MasterpieceNFTContract = MasterpieceNFT(_nftAddress);\r\n    }\r\n\r\n    function bid(uint256 bid_amount) public {\r\n        // TODO\r\n    }\r\n\r\n    function purchase(uint256 price) public {\r\n        // TODO\r\n        require(msg.sender != seller, \"seller can't call this function\");\r\n        require(ended == false, \"Not on Sale\");\r\n        require(SsafyTokenContract.balanceOf(msg.sender) >= price, \"buyer do not have enough tokens\");\r\n        require(SsafyTokenContract.allowance(msg.sender, address(this)) != 0, \"buyer did not approve this contract\");\r\n        require(SsafyTokenContract.allowance(msg.sender, address(this)) >= price, \"caller approve less amount of token\");\r\n        buyer = msg.sender;\r\n        SsafyTokenContract.transferFrom(buyer, seller, price);\r\n        MasterpieceNFTContract.transferFrom(address(this), buyer, tokenId);\r\n        emit SaleEnded(buyer, price);\r\n        _end();\r\n    }\r\n\r\n    function confirmItem() public {\r\n        // TODO \r\n    }\r\n    \r\n    function cancelSales() public onlySeller {\r\n        // TODO\r\n    }\r\n\r\n    // function getTimeLeft() public view returns (int256) {\r\n    //     return (int256)(saleEndTime - block.timestamp);\r\n    // }\r\n\r\n    function getSaleInfo()\r\n        public\r\n        view\r\n        returns (\r\n            uint256,\r\n            uint256,\r\n            address,\r\n            address\r\n        )\r\n    {\r\n        return (\r\n            purchasePrice,\r\n            tokenId,\r\n            currencyAddress,\r\n            nftAddress\r\n        );\r\n    }\r\n\r\n    function getHighestBid() public view returns(uint256){\r\n        return highestBid;\r\n    }\r\n\r\n    // internal  private     _  .\r\n    function _end() internal {\r\n        ended = true;\r\n    }\r\n\r\n    function _getCurrencyAmount() private view returns (uint256) {\r\n        return SsafyTokenContract.balanceOf(msg.sender);\r\n    }\r\n\r\n    // modifier       . \r\n    modifier onlySeller() {\r\n        require(msg.sender == seller || msg.sender == admin, \"Sale: You are not seller.\");\r\n        _;\r\n    }\r\n\r\n    // modifier onlyAfterStart() {\r\n    //     require(\r\n    //         block.timestamp >= saleStartTime,\r\n    //         \"Sale: This sale is not started.\"\r\n    //     );\r\n    //     _;\r\n    // }\r\n}\r\n",
  "sourcePath": "C:\\Users\\SSAFY\\smart-contracts\\contracts\\SaleFactory.sol",
  "compiler": {
    "name": "solc",
    "version": "0.8.10+commit.fc410830.Emscripten.clang"
  },
  "schemaVersion": "3.4.10",
  "updatedAt": "2022-09-27T07:20:29.688Z",
  "networkType": "ethereum",
  "devdoc": {
    "kind": "dev",
    "methods": {
      "createSale(uint256,uint256,address,address)": {
        "details": "  . "
      },
      "owner()": {
        "details": "Returns the address of the current owner."
      },
      "renounceOwnership()": {
        "details": "Leaves the contract without owner. It will not be possible to call `onlyOwner` functions anymore. Can only be called by the current owner. NOTE: Renouncing ownership will leave the contract without an owner, thereby removing any functionality that is only available to the owner."
      },
      "transferOwnership(address)": {
        "details": "Transfers ownership of the contract to a new account (`newOwner`). Can only be called by the current owner."
      }
    },
    "version": 1
  },
  "userdoc": {
    "kind": "user",
    "methods": {},
    "notice": "PJT  - Req.1-SC1 SaleFactory     ,      .",
    "version": 1
  }
}